{
  "_format": "hh-sol-artifact-1",
  "contractName": "MilkToken",
  "sourceName": "contracts/MilkToken.sol",
  "abi": [
    {
      "inputs": [],
      "stateMutability": "nonpayable",
      "type": "constructor"
    },
    {
      "anonymous": false,
      "inputs": [
        {
          "indexed": true,
          "internalType": "address",
          "name": "owner",
          "type": "address"
        },
        {
          "indexed": true,
          "internalType": "address",
          "name": "spender",
          "type": "address"
        },
        {
          "indexed": false,
          "internalType": "uint256",
          "name": "value",
          "type": "uint256"
        }
      ],
      "name": "Approval",
      "type": "event"
    },
    {
      "anonymous": false,
      "inputs": [
        {
          "indexed": false,
          "internalType": "uint8",
          "name": "version",
          "type": "uint8"
        }
      ],
      "name": "Initialized",
      "type": "event"
    },
    {
      "anonymous": false,
      "inputs": [
        {
          "indexed": true,
          "internalType": "address",
          "name": "previousOwner",
          "type": "address"
        },
        {
          "indexed": true,
          "internalType": "address",
          "name": "newOwner",
          "type": "address"
        }
      ],
      "name": "OwnershipTransferred",
      "type": "event"
    },
    {
      "anonymous": false,
      "inputs": [
        {
          "indexed": false,
          "internalType": "address",
          "name": "account",
          "type": "address"
        }
      ],
      "name": "Paused",
      "type": "event"
    },
    {
      "anonymous": false,
      "inputs": [
        {
          "indexed": true,
          "internalType": "address",
          "name": "from",
          "type": "address"
        },
        {
          "indexed": true,
          "internalType": "address",
          "name": "to",
          "type": "address"
        },
        {
          "indexed": false,
          "internalType": "uint256",
          "name": "value",
          "type": "uint256"
        }
      ],
      "name": "Transfer",
      "type": "event"
    },
    {
      "anonymous": false,
      "inputs": [
        {
          "indexed": false,
          "internalType": "address",
          "name": "account",
          "type": "address"
        }
      ],
      "name": "Unpaused",
      "type": "event"
    },
    {
      "inputs": [
        {
          "internalType": "address",
          "name": "owner",
          "type": "address"
        },
        {
          "internalType": "address",
          "name": "spender",
          "type": "address"
        }
      ],
      "name": "allowance",
      "outputs": [
        {
          "internalType": "uint256",
          "name": "",
          "type": "uint256"
        }
      ],
      "stateMutability": "view",
      "type": "function"
    },
    {
      "inputs": [
        {
          "internalType": "address",
          "name": "spender",
          "type": "address"
        },
        {
          "internalType": "uint256",
          "name": "amount",
          "type": "uint256"
        }
      ],
      "name": "approve",
      "outputs": [
        {
          "internalType": "bool",
          "name": "",
          "type": "bool"
        }
      ],
      "stateMutability": "nonpayable",
      "type": "function"
    },
    {
      "inputs": [
        {
          "internalType": "address",
          "name": "account",
          "type": "address"
        }
      ],
      "name": "balanceOf",
      "outputs": [
        {
          "internalType": "uint256",
          "name": "",
          "type": "uint256"
        }
      ],
      "stateMutability": "view",
      "type": "function"
    },
    {
      "inputs": [
        {
          "internalType": "uint256",
          "name": "amount",
          "type": "uint256"
        }
      ],
      "name": "burn",
      "outputs": [],
      "stateMutability": "nonpayable",
      "type": "function"
    },
    {
      "inputs": [
        {
          "internalType": "address",
          "name": "account",
          "type": "address"
        },
        {
          "internalType": "uint256",
          "name": "amount",
          "type": "uint256"
        }
      ],
      "name": "burnFrom",
      "outputs": [],
      "stateMutability": "nonpayable",
      "type": "function"
    },
    {
      "inputs": [],
      "name": "decimals",
      "outputs": [
        {
          "internalType": "uint8",
          "name": "",
          "type": "uint8"
        }
      ],
      "stateMutability": "view",
      "type": "function"
    },
    {
      "inputs": [
        {
          "internalType": "address",
          "name": "spender",
          "type": "address"
        },
        {
          "internalType": "uint256",
          "name": "subtractedValue",
          "type": "uint256"
        }
      ],
      "name": "decreaseAllowance",
      "outputs": [
        {
          "internalType": "bool",
          "name": "",
          "type": "bool"
        }
      ],
      "stateMutability": "nonpayable",
      "type": "function"
    },
    {
      "inputs": [
        {
          "internalType": "address",
          "name": "spender",
          "type": "address"
        },
        {
          "internalType": "uint256",
          "name": "addedValue",
          "type": "uint256"
        }
      ],
      "name": "increaseAllowance",
      "outputs": [
        {
          "internalType": "bool",
          "name": "",
          "type": "bool"
        }
      ],
      "stateMutability": "nonpayable",
      "type": "function"
    },
    {
      "inputs": [],
      "name": "initialize",
      "outputs": [],
      "stateMutability": "nonpayable",
      "type": "function"
    },
    {
      "inputs": [
        {
          "internalType": "address",
          "name": "to",
          "type": "address"
        },
        {
          "internalType": "uint256",
          "name": "amount",
          "type": "uint256"
        }
      ],
      "name": "mint",
      "outputs": [],
      "stateMutability": "nonpayable",
      "type": "function"
    },
    {
      "inputs": [],
      "name": "name",
      "outputs": [
        {
          "internalType": "string",
          "name": "",
          "type": "string"
        }
      ],
      "stateMutability": "view",
      "type": "function"
    },
    {
      "inputs": [],
      "name": "owner",
      "outputs": [
        {
          "internalType": "address",
          "name": "",
          "type": "address"
        }
      ],
      "stateMutability": "view",
      "type": "function"
    },
    {
      "inputs": [],
      "name": "pause",
      "outputs": [],
      "stateMutability": "nonpayable",
      "type": "function"
    },
    {
      "inputs": [],
      "name": "paused",
      "outputs": [
        {
          "internalType": "bool",
          "name": "",
          "type": "bool"
        }
      ],
      "stateMutability": "view",
      "type": "function"
    },
    {
      "inputs": [],
      "name": "renounceOwnership",
      "outputs": [],
      "stateMutability": "nonpayable",
      "type": "function"
    },
    {
      "inputs": [],
      "name": "symbol",
      "outputs": [
        {
          "internalType": "string",
          "name": "",
          "type": "string"
        }
      ],
      "stateMutability": "view",
      "type": "function"
    },
    {
      "inputs": [],
      "name": "totalSupply",
      "outputs": [
        {
          "internalType": "uint256",
          "name": "",
          "type": "uint256"
        }
      ],
      "stateMutability": "view",
      "type": "function"
    },
    {
      "inputs": [
        {
          "internalType": "address",
          "name": "to",
          "type": "address"
        },
        {
          "internalType": "uint256",
          "name": "amount",
          "type": "uint256"
        }
      ],
      "name": "transfer",
      "outputs": [
        {
          "internalType": "bool",
          "name": "",
          "type": "bool"
        }
      ],
      "stateMutability": "nonpayable",
      "type": "function"
    },
    {
      "inputs": [
        {
          "internalType": "address",
          "name": "from",
          "type": "address"
        },
        {
          "internalType": "address",
          "name": "to",
          "type": "address"
        },
        {
          "internalType": "uint256",
          "name": "amount",
          "type": "uint256"
        }
      ],
      "name": "transferFrom",
      "outputs": [
        {
          "internalType": "bool",
          "name": "",
          "type": "bool"
        }
      ],
      "stateMutability": "nonpayable",
      "type": "function"
    },
    {
      "inputs": [
        {
          "internalType": "address",
          "name": "newOwner",
          "type": "address"
        }
      ],
      "name": "transferOwnership",
      "outputs": [],
      "stateMutability": "nonpayable",
      "type": "function"
    },
    {
      "inputs": [],
      "name": "unpause",
      "outputs": [],
      "stateMutability": "nonpayable",
      "type": "function"
    }
  ],
  "bytecode": "0x60806040523480156200001157600080fd5b506200002e67e2f3dd266dc96ffb60c01b6200007c60201b60201c565b6200004a67b6ca65fad108628160c01b6200007c60201b60201c565b6200006667ae268e6780210e0e60c01b6200007c60201b60201c565b620000766200007f60201b60201c565b62000229565b50565b600060019054906101000a900460ff1615620000d2576040517f08c379a0000000000000000000000000000000000000000000000000000000008152600401620000c990620001cc565b60405180910390fd5b60ff801660008054906101000a900460ff1660ff1614620001435760ff6000806101000a81548160ff021916908360ff1602179055507f7f26b83ff96e1f2b6a682f133852f6798a09c465da95921460cefb384740249860ff6040516200013a91906200020c565b60405180910390a15b565b600082825260208201905092915050565b7f496e697469616c697a61626c653a20636f6e747261637420697320696e69746960008201527f616c697a696e6700000000000000000000000000000000000000000000000000602082015250565b6000620001b460278362000145565b9150620001c18262000156565b604082019050919050565b60006020820190508181036000830152620001e781620001a5565b9050919050565b600060ff82169050919050565b6200020681620001ee565b82525050565b6000602082019050620002236000830184620001fb565b92915050565b612afd80620002396000396000f3fe608060405234801561001057600080fd5b50600436106101375760003560e01c806370a08231116100b85780638da5cb5b1161007c5780638da5cb5b146102f057806395d89b411461030e578063a457c2d71461032c578063a9059cbb1461035c578063dd62ed3e1461038c578063f2fde38b146103bc57610137565b806370a0823114610286578063715018a6146102b657806379cc6790146102c05780638129fc1c146102dc5780638456cb59146102e657610137565b806339509351116100ff57806339509351146101f65780633f4ba83a1461022657806340c10f191461023057806342966c681461024c5780635c975abb1461026857610137565b806306fdde031461013c578063095ea7b31461015a57806318160ddd1461018a57806323b872dd146101a8578063313ce567146101d8575b600080fd5b6101446103d8565b6040516101519190611bc6565b60405180910390f35b610174600480360381019061016f9190611c81565b61046a565b6040516101819190611cdc565b60405180910390f35b61019261048d565b60405161019f9190611d06565b60405180910390f35b6101c260048036038101906101bd9190611d21565b610497565b6040516101cf9190611cdc565b60405180910390f35b6101e06104c6565b6040516101ed9190611d90565b60405180910390f35b610210600480360381019061020b9190611c81565b6104cf565b60405161021d9190611cdc565b60405180910390f35b61022e610506565b005b61024a60048036038101906102459190611c81565b61057c565b005b61026660048036038101906102619190611dab565b6105c6565b005b610270610684565b60405161027d9190611cdc565b60405180910390f35b6102a0600480360381019061029b9190611dd8565b61069b565b6040516102ad9190611d06565b60405180910390f35b6102be6106e4565b005b6102da60048036038101906102d59190611c81565b6106f8565b005b6102e4610718565b005b6102ee6109b6565b005b6102f8610a2c565b6040516103059190611e14565b60405180910390f35b610316610a56565b6040516103239190611bc6565b60405180910390f35b61034660048036038101906103419190611c81565b610ae8565b6040516103539190611cdc565b60405180910390f35b61037660048036038101906103719190611c81565b610b5f565b6040516103839190611cdc565b60405180910390f35b6103a660048036038101906103a19190611e2f565b610b82565b6040516103b39190611d06565b60405180910390f35b6103d660048036038101906103d19190611dd8565b610c09565b005b6060603680546103e790611e9e565b80601f016020809104026020016040519081016040528092919081815260200182805461041390611e9e565b80156104605780601f1061043557610100808354040283529160200191610460565b820191906000526020600020905b81548152906001019060200180831161044357829003601f168201915b5050505050905090565b600080610475610c8c565b9050610482818585610c94565b600191505092915050565b6000603554905090565b6000806104a2610c8c565b90506104af858285610e5d565b6104ba858585610ee9565b60019150509392505050565b60006012905090565b6000806104da610c8c565b90506104fb8185856104ec8589610b82565b6104f69190611efe565b610c94565b600191505092915050565b61051a67292e2f0a24dc402560c01b611162565b610522611165565b610536678b1aedd362e7c4e560c01b611162565b61054a67023d14bceade2e9060c01b611162565b61055e6745e53a28880b455060c01b611162565b6105726728c946b515db259460c01b611162565b61057a6111e3565b565b610590672dedf3e28a349c6760c01b611162565b6105a467e1f12cf680fdf3d460c01b611162565b6105b8679c4f465dcacb363260c01b611162565b6105c28282611246565b5050565b6105da67097fbd3cb8f1d3b060c01b611162565b6105ee67c2a5641f7bde59c460c01b611162565b610602672a443156bc87d2c360c01b611162565b6106486040518060400160405280600a81526020017f73656e64657220247b7d00000000000000000000000000000000000000000000815250610643610c8c565b61139d565b61065c677d47ff452b2fc6dd60c01b611162565b610670671f91cdacdba6e4d260c01b611162565b61068161067b610c8c565b82611439565b50565b6000609760009054906101000a900460ff16905090565b6000603360008373ffffffffffffffffffffffffffffffffffffffff1673ffffffffffffffffffffffffffffffffffffffff168152602001908152602001600020549050919050565b6106ec611165565b6106f66000611608565b565b61070a82610704610c8c565b83610e5d565b6107148282611439565b5050565b61072c67f936227982b2e4fc60c01b611162565b60008060019054906101000a900460ff1615905080801561075d5750600160008054906101000a900460ff1660ff16105b8061078a575061076c306116ce565b1580156107895750600160008054906101000a900460ff1660ff16145b5b6107c9576040517f08c379a00000000000000000000000000000000000000000000000000000000081526004016107c090611fa4565b60405180910390fd5b60016000806101000a81548160ff021916908360ff1602179055508015610806576001600060016101000a81548160ff0219169083151502179055505b61081a67370378e0015a81f560c01b611162565b61082e6756723e995307bfa660c01b611162565b6108426784badded529916f160c01b611162565b610856679be6b4ecf851d41260c01b611162565b6108ca6040518060400160405280600f81526020017f455243323055706772616461626c6500000000000000000000000000000000008152506040518060400160405280600481526020017f4d494c4b000000000000000000000000000000000000000000000000000000008152506116f1565b6108de677e02b034f9523d4660c01b611162565b6108f267bd091cd7ba803f6360c01b611162565b6108fa61174e565b61090e67c55999c993c6c9a060c01b611162565b61092267b3e56a6e43a252df60c01b611162565b61092a61179f565b61093e67ca9f2664ad74fa8060c01b611162565b610952671aa62f1e2cba6ea860c01b611162565b61095a6117f8565b80156109b35760008060016101000a81548160ff0219169083151502179055507f7f26b83ff96e1f2b6a682f133852f6798a09c465da95921460cefb384740249860016040516109aa9190612009565b60405180910390a15b50565b6109ca67ad409976f42cb8cf60c01b611162565b6109d2611165565b6109e6675c14f97fa355391e60c01b611162565b6109fa671abdf90bb2ac73db60c01b611162565b610a0e671169bf27e8ecd27f60c01b611162565b610a226782cdf5b0390389f760c01b611162565b610a2a611851565b565b600060c960009054906101000a900473ffffffffffffffffffffffffffffffffffffffff16905090565b606060378054610a6590611e9e565b80601f0160208091040260200160405190810160405280929190818152602001828054610a9190611e9e565b8015610ade5780601f10610ab357610100808354040283529160200191610ade565b820191906000526020600020905b815481529060010190602001808311610ac157829003601f168201915b5050505050905090565b600080610af3610c8c565b90506000610b018286610b82565b905083811015610b46576040517f08c379a0000000000000000000000000000000000000000000000000000000008152600401610b3d90612096565b60405180910390fd5b610b538286868403610c94565b60019250505092915050565b600080610b6a610c8c565b9050610b77818585610ee9565b600191505092915050565b6000603460008473ffffffffffffffffffffffffffffffffffffffff1673ffffffffffffffffffffffffffffffffffffffff16815260200190815260200160002060008373ffffffffffffffffffffffffffffffffffffffff1673ffffffffffffffffffffffffffffffffffffffff16815260200190815260200160002054905092915050565b610c11611165565b600073ffffffffffffffffffffffffffffffffffffffff168173ffffffffffffffffffffffffffffffffffffffff1603610c80576040517f08c379a0000000000000000000000000000000000000000000000000000000008152600401610c7790612128565b60405180910390fd5b610c8981611608565b50565b600033905090565b600073ffffffffffffffffffffffffffffffffffffffff168373ffffffffffffffffffffffffffffffffffffffff1603610d03576040517f08c379a0000000000000000000000000000000000000000000000000000000008152600401610cfa906121ba565b60405180910390fd5b600073ffffffffffffffffffffffffffffffffffffffff168273ffffffffffffffffffffffffffffffffffffffff1603610d72576040517f08c379a0000000000000000000000000000000000000000000000000000000008152600401610d699061224c565b60405180910390fd5b80603460008573ffffffffffffffffffffffffffffffffffffffff1673ffffffffffffffffffffffffffffffffffffffff16815260200190815260200160002060008473ffffffffffffffffffffffffffffffffffffffff1673ffffffffffffffffffffffffffffffffffffffff168152602001908152602001600020819055508173ffffffffffffffffffffffffffffffffffffffff168373ffffffffffffffffffffffffffffffffffffffff167f8c5be1e5ebec7d5bd14f71427d1e84f3dd0314c0f7b2291e5b200ac8c7c3b92583604051610e509190611d06565b60405180910390a3505050565b6000610e698484610b82565b90507fffffffffffffffffffffffffffffffffffffffffffffffffffffffffffffffff8114610ee35781811015610ed5576040517f08c379a0000000000000000000000000000000000000000000000000000000008152600401610ecc906122b8565b60405180910390fd5b610ee28484848403610c94565b5b50505050565b600073ffffffffffffffffffffffffffffffffffffffff168373ffffffffffffffffffffffffffffffffffffffff1603610f58576040517f08c379a0000000000000000000000000000000000000000000000000000000008152600401610f4f9061234a565b60405180910390fd5b600073ffffffffffffffffffffffffffffffffffffffff168273ffffffffffffffffffffffffffffffffffffffff1603610fc7576040517f08c379a0000000000000000000000000000000000000000000000000000000008152600401610fbe906123dc565b60405180910390fd5b610fd28383836118b4565b6000603360008573ffffffffffffffffffffffffffffffffffffffff1673ffffffffffffffffffffffffffffffffffffffff16815260200190815260200160002054905081811015611059576040517f08c379a00000000000000000000000000000000000000000000000000000000081526004016110509061246e565b60405180910390fd5b818103603360008673ffffffffffffffffffffffffffffffffffffffff1673ffffffffffffffffffffffffffffffffffffffff1681526020019081526020016000208190555081603360008573ffffffffffffffffffffffffffffffffffffffff1673ffffffffffffffffffffffffffffffffffffffff168152602001908152602001600020600082825401925050819055508273ffffffffffffffffffffffffffffffffffffffff168473ffffffffffffffffffffffffffffffffffffffff167fddf252ad1be2c89b69c2b068fc378daa952ba7f163c4a11628f55a4df523b3ef846040516111499190611d06565b60405180910390a361115c848484611930565b50505050565b50565b61116d610c8c565b73ffffffffffffffffffffffffffffffffffffffff1661118b610a2c565b73ffffffffffffffffffffffffffffffffffffffff16146111e1576040517f08c379a00000000000000000000000000000000000000000000000000000000081526004016111d8906124da565b60405180910390fd5b565b6111eb611935565b6000609760006101000a81548160ff0219169083151502179055507f5db9ee0a495bf2e6ff9c91a7834c1ba4fdd244a5e8aa4e537bd38aeae4b073aa61122f610c8c565b60405161123c9190611e14565b60405180910390a1565b600073ffffffffffffffffffffffffffffffffffffffff168273ffffffffffffffffffffffffffffffffffffffff16036112b5576040517f08c379a00000000000000000000000000000000000000000000000000000000081526004016112ac90612546565b60405180910390fd5b6112c1600083836118b4565b80603560008282546112d39190611efe565b9250508190555080603360008473ffffffffffffffffffffffffffffffffffffffff1673ffffffffffffffffffffffffffffffffffffffff168152602001908152602001600020600082825401925050819055508173ffffffffffffffffffffffffffffffffffffffff16600073ffffffffffffffffffffffffffffffffffffffff167fddf252ad1be2c89b69c2b068fc378daa952ba7f163c4a11628f55a4df523b3ef836040516113859190611d06565b60405180910390a361139960008383611930565b5050565b61143582826040516024016113b3929190612566565b6040516020818303038152906040527f319af333000000000000000000000000000000000000000000000000000000007bffffffffffffffffffffffffffffffffffffffffffffffffffffffff19166020820180517bffffffffffffffffffffffffffffffffffffffffffffffffffffffff838183161783525050505061197e565b5050565b600073ffffffffffffffffffffffffffffffffffffffff168273ffffffffffffffffffffffffffffffffffffffff16036114a8576040517f08c379a000000000000000000000000000000000000000000000000000000000815260040161149f90612608565b60405180910390fd5b6114b4826000836118b4565b6000603360008473ffffffffffffffffffffffffffffffffffffffff1673ffffffffffffffffffffffffffffffffffffffff1681526020019081526020016000205490508181101561153b576040517f08c379a00000000000000000000000000000000000000000000000000000000081526004016115329061269a565b60405180910390fd5b818103603360008573ffffffffffffffffffffffffffffffffffffffff1673ffffffffffffffffffffffffffffffffffffffff1681526020019081526020016000208190555081603560008282540392505081905550600073ffffffffffffffffffffffffffffffffffffffff168373ffffffffffffffffffffffffffffffffffffffff167fddf252ad1be2c89b69c2b068fc378daa952ba7f163c4a11628f55a4df523b3ef846040516115ef9190611d06565b60405180910390a361160383600084611930565b505050565b600060c960009054906101000a900473ffffffffffffffffffffffffffffffffffffffff1690508160c960006101000a81548173ffffffffffffffffffffffffffffffffffffffff021916908373ffffffffffffffffffffffffffffffffffffffff1602179055508173ffffffffffffffffffffffffffffffffffffffff168173ffffffffffffffffffffffffffffffffffffffff167f8be0079c531659141344cd1fd0a4f28419497f9722a3daafe3b4186f6b6457e060405160405180910390a35050565b6000808273ffffffffffffffffffffffffffffffffffffffff163b119050919050565b600060019054906101000a900460ff16611740576040517f08c379a00000000000000000000000000000000000000000000000000000000081526004016117379061272c565b60405180910390fd5b61174a82826119a7565b5050565b600060019054906101000a900460ff1661179d576040517f08c379a00000000000000000000000000000000000000000000000000000000081526004016117949061272c565b60405180910390fd5b565b600060019054906101000a900460ff166117ee576040517f08c379a00000000000000000000000000000000000000000000000000000000081526004016117e59061272c565b60405180910390fd5b6117f6611a1a565b565b600060019054906101000a900460ff16611847576040517f08c379a000000000000000000000000000000000000000000000000000000000815260040161183e9061272c565b60405180910390fd5b61184f611a86565b565b611859611ae7565b6001609760006101000a81548160ff0219169083151502179055507f62e78cea01bee320cd4e420270b5ea74000d11b0c9f74754ebdbfc544b05a25861189d610c8c565b6040516118aa9190611e14565b60405180910390a1565b6118c867c72f886d6aed54bc60c01b611162565b6118d0611ae7565b6118e467c13d12b08f49558660c01b611162565b6118f86734f456c03471cee360c01b611162565b61190c67933053d03f956d6260c01b611162565b611920677c4c36d8722c8b5860c01b611162565b61192b838383611b31565b505050565b505050565b61193d610684565b61197c576040517f08c379a000000000000000000000000000000000000000000000000000000000815260040161197390612798565b60405180910390fd5b565b60008151905060006a636f6e736f6c652e6c6f679050602083016000808483855afa5050505050565b600060019054906101000a900460ff166119f6576040517f08c379a00000000000000000000000000000000000000000000000000000000081526004016119ed9061272c565b60405180910390fd5b8160369081611a059190612989565b508060379081611a159190612989565b505050565b600060019054906101000a900460ff16611a69576040517f08c379a0000000000000000000000000000000000000000000000000000000008152600401611a609061272c565b60405180910390fd5b6000609760006101000a81548160ff021916908315150217905550565b600060019054906101000a900460ff16611ad5576040517f08c379a0000000000000000000000000000000000000000000000000000000008152600401611acc9061272c565b60405180910390fd5b611ae5611ae0610c8c565b611608565b565b611aef610684565b15611b2f576040517f08c379a0000000000000000000000000000000000000000000000000000000008152600401611b2690612aa7565b60405180910390fd5b565b505050565b600081519050919050565b600082825260208201905092915050565b60005b83811015611b70578082015181840152602081019050611b55565b60008484015250505050565b6000601f19601f8301169050919050565b6000611b9882611b36565b611ba28185611b41565b9350611bb2818560208601611b52565b611bbb81611b7c565b840191505092915050565b60006020820190508181036000830152611be08184611b8d565b905092915050565b600080fd5b600073ffffffffffffffffffffffffffffffffffffffff82169050919050565b6000611c1882611bed565b9050919050565b611c2881611c0d565b8114611c3357600080fd5b50565b600081359050611c4581611c1f565b92915050565b6000819050919050565b611c5e81611c4b565b8114611c6957600080fd5b50565b600081359050611c7b81611c55565b92915050565b60008060408385031215611c9857611c97611be8565b5b6000611ca685828601611c36565b9250506020611cb785828601611c6c565b9150509250929050565b60008115159050919050565b611cd681611cc1565b82525050565b6000602082019050611cf16000830184611ccd565b92915050565b611d0081611c4b565b82525050565b6000602082019050611d1b6000830184611cf7565b92915050565b600080600060608486031215611d3a57611d39611be8565b5b6000611d4886828701611c36565b9350506020611d5986828701611c36565b9250506040611d6a86828701611c6c565b9150509250925092565b600060ff82169050919050565b611d8a81611d74565b82525050565b6000602082019050611da56000830184611d81565b92915050565b600060208284031215611dc157611dc0611be8565b5b6000611dcf84828501611c6c565b91505092915050565b600060208284031215611dee57611ded611be8565b5b6000611dfc84828501611c36565b91505092915050565b611e0e81611c0d565b82525050565b6000602082019050611e296000830184611e05565b92915050565b60008060408385031215611e4657611e45611be8565b5b6000611e5485828601611c36565b9250506020611e6585828601611c36565b9150509250929050565b7f4e487b7100000000000000000000000000000000000000000000000000000000600052602260045260246000fd5b60006002820490506001821680611eb657607f821691505b602082108103611ec957611ec8611e6f565b5b50919050565b7f4e487b7100000000000000000000000000000000000000000000000000000000600052601160045260246000fd5b6000611f0982611c4b565b9150611f1483611c4b565b9250828201905080821115611f2c57611f2b611ecf565b5b92915050565b7f496e697469616c697a61626c653a20636f6e747261637420697320616c72656160008201527f647920696e697469616c697a6564000000000000000000000000000000000000602082015250565b6000611f8e602e83611b41565b9150611f9982611f32565b604082019050919050565b60006020820190508181036000830152611fbd81611f81565b9050919050565b6000819050919050565b6000819050919050565b6000611ff3611fee611fe984611fc4565b611fce565b611d74565b9050919050565b61200381611fd8565b82525050565b600060208201905061201e6000830184611ffa565b92915050565b7f45524332303a2064656372656173656420616c6c6f77616e63652062656c6f7760008201527f207a65726f000000000000000000000000000000000000000000000000000000602082015250565b6000612080602583611b41565b915061208b82612024565b604082019050919050565b600060208201905081810360008301526120af81612073565b9050919050565b7f4f776e61626c653a206e6577206f776e657220697320746865207a65726f206160008201527f6464726573730000000000000000000000000000000000000000000000000000602082015250565b6000612112602683611b41565b915061211d826120b6565b604082019050919050565b6000602082019050818103600083015261214181612105565b9050919050565b7f45524332303a20617070726f76652066726f6d20746865207a65726f2061646460008201527f7265737300000000000000000000000000000000000000000000000000000000602082015250565b60006121a4602483611b41565b91506121af82612148565b604082019050919050565b600060208201905081810360008301526121d381612197565b9050919050565b7f45524332303a20617070726f766520746f20746865207a65726f20616464726560008201527f7373000000000000000000000000000000000000000000000000000000000000602082015250565b6000612236602283611b41565b9150612241826121da565b604082019050919050565b6000602082019050818103600083015261226581612229565b9050919050565b7f45524332303a20696e73756666696369656e7420616c6c6f77616e6365000000600082015250565b60006122a2601d83611b41565b91506122ad8261226c565b602082019050919050565b600060208201905081810360008301526122d181612295565b9050919050565b7f45524332303a207472616e736665722066726f6d20746865207a65726f20616460008201527f6472657373000000000000000000000000000000000000000000000000000000602082015250565b6000612334602583611b41565b915061233f826122d8565b604082019050919050565b6000602082019050818103600083015261236381612327565b9050919050565b7f45524332303a207472616e7366657220746f20746865207a65726f206164647260008201527f6573730000000000000000000000000000000000000000000000000000000000602082015250565b60006123c6602383611b41565b91506123d18261236a565b604082019050919050565b600060208201905081810360008301526123f5816123b9565b9050919050565b7f45524332303a207472616e7366657220616d6f756e742065786365656473206260008201527f616c616e63650000000000000000000000000000000000000000000000000000602082015250565b6000612458602683611b41565b9150612463826123fc565b604082019050919050565b600060208201905081810360008301526124878161244b565b9050919050565b7f4f776e61626c653a2063616c6c6572206973206e6f7420746865206f776e6572600082015250565b60006124c4602083611b41565b91506124cf8261248e565b602082019050919050565b600060208201905081810360008301526124f3816124b7565b9050919050565b7f45524332303a206d696e7420746f20746865207a65726f206164647265737300600082015250565b6000612530601f83611b41565b915061253b826124fa565b602082019050919050565b6000602082019050818103600083015261255f81612523565b9050919050565b600060408201905081810360008301526125808185611b8d565b905061258f6020830184611e05565b9392505050565b7f45524332303a206275726e2066726f6d20746865207a65726f2061646472657360008201527f7300000000000000000000000000000000000000000000000000000000000000602082015250565b60006125f2602183611b41565b91506125fd82612596565b604082019050919050565b60006020820190508181036000830152612621816125e5565b9050919050565b7f45524332303a206275726e20616d6f756e7420657863656564732062616c616e60008201527f6365000000000000000000000000000000000000000000000000000000000000602082015250565b6000612684602283611b41565b915061268f82612628565b604082019050919050565b600060208201905081810360008301526126b381612677565b9050919050565b7f496e697469616c697a61626c653a20636f6e7472616374206973206e6f74206960008201527f6e697469616c697a696e67000000000000000000000000000000000000000000602082015250565b6000612716602b83611b41565b9150612721826126ba565b604082019050919050565b6000602082019050818103600083015261274581612709565b9050919050565b7f5061757361626c653a206e6f7420706175736564000000000000000000000000600082015250565b6000612782601483611b41565b915061278d8261274c565b602082019050919050565b600060208201905081810360008301526127b181612775565b9050919050565b7f4e487b7100000000000000000000000000000000000000000000000000000000600052604160045260246000fd5b60008190508160005260206000209050919050565b60006020601f8301049050919050565b600082821b905092915050565b6000600883026128497fffffffffffffffffffffffffffffffffffffffffffffffffffffffffffffffff8261280c565b612853868361280c565b95508019841693508086168417925050509392505050565b600061288661288161287c84611c4b565b611fce565b611c4b565b9050919050565b6000819050919050565b6128a08361286b565b6128b46128ac8261288d565b848454612819565b825550505050565b600090565b6128c96128bc565b6128d4818484612897565b505050565b5b818110156128f8576128ed6000826128c1565b6001810190506128da565b5050565b601f82111561293d5761290e816127e7565b612917846127fc565b81016020851015612926578190505b61293a612932856127fc565b8301826128d9565b50505b505050565b600082821c905092915050565b600061296060001984600802612942565b1980831691505092915050565b6000612979838361294f565b9150826002028217905092915050565b61299282611b36565b67ffffffffffffffff8111156129ab576129aa6127b8565b5b6129b58254611e9e565b6129c08282856128fc565b600060209050601f8311600181146129f357600084156129e1578287015190505b6129eb858261296d565b865550612a53565b601f198416612a01866127e7565b60005b82811015612a2957848901518255600182019150602085019450602081019050612a04565b86831015612a465784890151612a42601f89168261294f565b8355505b6001600288020188555050505b505050505050565b7f5061757361626c653a2070617573656400000000000000000000000000000000600082015250565b6000612a91601083611b41565b9150612a9c82612a5b565b602082019050919050565b60006020820190508181036000830152612ac081612a84565b905091905056fea2646970667358221220cbdb90b716d88415a93d80983f414b1b683cfc80024bebf51a1a61563232216c64736f6c63430008120033",
  "linkReferences": {},
  "deployedLinkReferences": {}
}